S01700004763634170706C69636174696F6E332E7372656359
S11300000C9434000C9451000C9451000C94510045
S11300100C9451000C9451000C9451000C94510018
S11300200C9451000C9451000C9451000C94510008
S11300300C9451000C9451000C9451000C945100F8
S11300400C9451000C9451000C9451000C945100E8
S11300500C9451000C9451000C9451000C945100D8
S11300600C9451000C94510011241FBECFEFD8E022
S1130070DEBFCDBF12E0A0E0B1E0E8E4FAE002C0E8
S113008005900D92A03EB107D9F723E0A0EEB2E0AF
S113009001C01D92AD31B207E1F70E94AE010C948C
S11300A022050C94000080E58CBD089528982A98B8
S11300B08EBD0DB407FEFDCF289A089528982A9A7C
S11300C08EBD0DB407FEFDCF8091E2029091E30254
S11300D00196843591052CF49093E3028093E20217
S11300E015C01092E3021092E2028091E002909116
S11300F0E1020196863091052CF49093E1028093FD
S1130100E00204C01092E1021092E002289A0895DD
S1130110CF93DF93D82FC62F80680E9456008C2F70
S113012080640E9456008D2F90E09093E3028093A8
S1130130E2026C2F70E07093E1026093E002DF91C1
S1130140CF9108950F931F93CF93DF9360E080E0E6
S11301500E94880006E010E008C080E00E945E0073
S11301602197D9F70150110919F0C4E5D0E0F5CF72
S113017060E080E00E948800DF91CF911F910F9191
S113018008952FEF81EE94E0215080409040E1F7F4
S113019000C00000289829982FEF81EE94E02150A8
S11301A080409040E1F700C00000299A289A81E23B
S11301B00E9456008FEB0E94560084E00E94560075
S11301C083E10E94560080E20E9456008CE00E9467
S11301D056000E94A20008950F931F93CF93DF93BC
S11301E0C82F8A3071F46091E0027091E1026F5F70
S11301F07F4F7093E1026093E00280E00E948800E8
S113020052C08091E2029091E30264E570E0681BC1
S1130210790B65307105C4F58C2F90E080979C01B3
S1130220220F331F220F331F820F931FFC01E05054
S1130230FF4F8B5F9E4F40E050E02191203811F03A
S11302404F5F5F4FE817F907C1F764177507E4F4C8
S11302506091E0027091E1026F5F7F4F7093E10261
S11302606093E00280E00E9488000EC0F801819152
S11302708F01803811F00E945E000C171D07B1F742
S113028080E00E945E000FC0D0E0A097CE01880FEE
S1130290991F880F991FC80FD91F8E0100501F4F37
S11302A0CB5FDE4FE3CFDF91CF911F910F91089584
S11302B00F931F93CF93FC018081882359F08F0102
S11302C0C0E00E94EC00CF5FF801EC0FF11D8081CB
S11302D08111F7CFCF911F910F9108951F93CF9361
S11302E0DF93182FD62FC42F0E940A0282E20E94A5
S11302F01702812F0E9417028D2F0E9417028C2F44
S11303000E9417020E941302DF91CF911F9108955A
S1130310CF93DF930E940A0282E20E94170282E0D6
S11303200E9417020E9413020E940A0283E20E94A2
S11303301702C0E0D0E00E942202FE01ED5FFC4FF4
S113034080832196CC30D105B1F70E942D02809391
S11303500F030E941302DF91CF9108958FEF84B9A8
S11303600E9453000E94C10060E082E00E94880065
S113037086E60E94EC008FE60E94EC0081E60E9473
S1130380EC008DE60E94EC0085E60E94EC0061E042
S113039080E00E9488000E94010243E060EC82E059
S11303A00E946E014DE060EC82E00E946E0140ED1F
S11303B06CE083E00E946E0141ED64E885E00E94F8
S11303C06E010E94880182E48F9388EB8F9383E30C
S11303D08F938F938BED92E09F938F9384EF92E0B2
S11303E09F938F930E94380284EF92E00E945801F9
S11303F08DB79EB708960FB6F8949EBF0FBE8DBFFB
S1130400FFCF1092B9008CE08093B80084E0809311
S1130410BC00089584EA8093BC00ECEBF0E080819A
S11304208823ECF7089584E98093BC0008958093B1
S1130430BB0084E88093BC00ECEBF0E0808188236F
S1130440ECF7089584EC8093BC00ECEBF0E0808141
S11304508823ECF78091BB00089584E88093BC0066
S1130460ECEBF0E080818823ECF78091BB000895E9
S1130470AEE0B0E0EEE3F2E00C94F9040D891E89DD
S113048086E08C831A8309838FEF9FE79E838D8395
S1130490AE01475E5F4F6F89788DCE0101960E9451
S11304A05A02EF81F885E00FF11F10822E96E4E0E6
S11304B00C941505ABE0B0E0E0E6F2E00C94EB043C
S11304C06C017B018A01FC0117821682838181FF02
S11304D0CCC1CE0101963C01F6019381F70193FD55
S11304E0859193FF81917F01882309F4BAC18532F4
S11304F039F493FD859193FF81917F01853229F42D
S1130500B60190E00E945104E7CF912C212C312CAC
S1130510FFE1F315D8F08B3279F038F4803279F0BA
S11305208332A1F4232D20611DC08D3261F080330C
S113053069F4232D216016C0832D8260382EE32DAB
S1130540E4603E2E2AC0F32DF8601DC037FC2DC098
S113055020ED280F2A3040F08E32B9F436FC81C1E8
S1130560232D2064322E19C036FE06C08AE0989EE0
S1130570200D1124922E11C0EAE02E9E200D11248C
S1130580222EF32DF0623F2E08C08C3621F4832DE9
S11305908068382E02C0883641F4F70193FD8591B6
S11305A093FF81917F018111B3CF982F9F7D955443
S11305B0933028F40C5F1F4F9FE399830DC083365B
S11305C031F0833771F0833509F059C021C0F80147
S11305D0808189830E5F1F4F88248394912C53015B
S11305E013C02801F2E04F0E511CF801A080B18025
S11305F036FE03C0692D70E002C06FEF7FEFC501C6
S11306000E9446044C018201F32DFF773F2E16C051
S1130610280122E0420E511CF801A080B18036FE70
S113062003C0692D70E002C06FEF7FEFC5010E9427
S11306303B044C01F32DF0683F2E820133FC1BC0B8
S1130640822D90E088169906B0F4B60180E290E01D
S11306500E9451042A94F4CFF50137FC859137FEAA
S113066081915F01B60190E00E94510421102A9407
S113067021E0821A91088114910471F7E8C084364C
S113068011F0893641F5F80137FE07C060817181A8
S1130690828193810C5F1F4F08C060817181072E96
S11306A0000C880B990B0E5F1F4FF32DFF763F2E26
S11306B097FF09C090958095709561957F4F8F4FF6
S11306C09F4FF0683F2E2AE030E0A3010E948D0482
S11306D0882E861845C0853731F4232D2F7EB22EFF
S11306E02AE030E025C0932D997FB92E8F36C1F0D2
S11306F018F4883579F0B5C0803719F0883721F0BF
S1130700B0C0E92FE061BE2EB4FE0DC0FB2DF46035
S1130710BF2E09C034FE0AC0292F2660B22E06C09F
S113072028E030E005C020E130E002C020E132E002
S1130730F801B7FE07C060817181828193810C5FEB
S11307401F4F06C06081718180E090E00E5F1F4FF3
S1130750A3010E948D04882E8618FB2DFF773F2E5F
S113076036FE0DC0232D2E7FA22E891458F434FE9C
S11307700BC032FC09C0832D8E7EA82E05C0B82C78
S1130780A32C03C0B82C01C0B92CA4FE0FC0FE01D9
S1130790E80DF11D8081803321F49A2D997EA92ED4
S11307A009C0A2FE06C0B394B39404C08A2D86780F
S11307B009F0B394A3FC11C0A0FE06C0B21488F4DF
S11307C0280C922C9B180EC0B21460F4B60180E27F
S11307D090E00E945104B394F7CFB21418F42B188C
S11307E002C0982C212CA4FE10C0B60180E390E036
S11307F00E945104A2FE17C0A1FC03C088E790E048
S113080002C088E590E0B6010CC08A2D867859F0C4
S1130810A1FE02C08BE201C080E2A7FC8DE2B6011A
S113082090E00E945104891438F4B60180E390E00A
S11308300E9451049A94F7CF8A94F301E80DF11DB4
S11308408081B60190E00E9451048110F5CF2220EE
S113085009F442CEB60180E290E00E9451042A9449
S1130860F6CFF6018681978102C08FEF9FEF2B961A
S1130870E2E10C940705FC01059061507040011001
S1130880D8F7809590958E0F9F1F0895FC016150B5
S1130890704001900110D8F7809590958E0F9F1F9E
S11308A008950F931F93CF93DF93FB01238121FDC1
S11308B003C08FEF9FEF2CC022FF16C046815781E3
S11308C0248135814217530744F4A081B1819D01ED
S11308D02F5F3F4F318320838C93268137812F5F95
S11308E03F4F3783268314C08B01EC01FB01008446
S11308F0F185E02D0995892BE1F6D80116968D91A5
S11309009C911797019617969C938E931697CE01F8
S1130910DF91CF911F910F910895FA01AA272830F2
S113092051F1203181F1E8946F936E7F6E5F7F4FB8
S11309308F4F9F4FAF4FB1E03ED0B4E03CD0670F34
S1130940781F891F9A1FA11D680F791F8A1F911D87
S1130950A11D6A0F711D811D911DA11D20D009F4D7
S113096068943F912AE0269F11243019305D319319
S1130970DEF6CF010895462F4770405D4193B3E002
S11309800FD0C9F7F6CF462F4F70405D4A3318F0A9
S1130990495D31FD4052419302D0A9F7EACFB4E05A
S11309A0A6959795879577956795BA95C9F7009712
S11309B06105710508959B01AC010A2E06945795B3
S11309C0479537952795BA95C9F7620F731F841F0A
S11309D0951FA01D08952F923F924F925F926F92A0
S11309E07F928F929F92AF92BF92CF92DF92EF92BB
S11309F0FF920F931F93CF93DF93CDB7DEB7CA1B3C
S1130A00DB0B0FB6F894DEBF0FBECDBF09942A8866
S1130A10398848885F846E847D848C849B84AA840E
S1130A20B984C884DF80EE80FD800C811B81AA819B
S1130A30B981CE0FD11D0FB6F894DEBF0FBECDBF66
S10B0A40ED010895F894FFCFC5
S1130A4800000080805C808080800C000C808028FE
S1130A587C287C285058EC28800460100C402854CA
S1130A685420500C808080803844808080443880B2
S1130A78808014081480801038108080C0408080E2
S1130A8880101010808040808080804020100804EE
S1130A983844443880047C808080645454488044BA
S1130AA85454288030287C20805C54542480385442
S1130AB85420800464140C80285454288008545406
S1130AC838802880808080688080808010284480D6
S1130AD880282828808044281080800454140880A2
S1130AE8384474543878242478807C5454288038C2
S1130AF8444480807C444438807C545444807C142E
S1130B0814048038445474807C10107C80447C44E1
S1130B1880802040443C807C102844807C40408075
S1130B28807C0810087C7C08107C80384444388019
S1130B387C24241880384444B8807C242458804871
S1130B4854542480047C0480803C40403C803C40D5
S1130B58300C803C4038403C6C10106C800C505079
S1130B683C8064544C80807C44808080040810203D
S1130B7840447C8080800804088080404040408055
S1130B88040880808030484878807C484830803029
S1130B98484880803048487C8030685810801078F5
S1130BA814808018A4A47C807C08087080748080D9
S1130BB8808040348080807C203044807C808080A9
S1130BC88078087808707808087080304848308041
S1130BD8F848483080304848F880781008808050B9
S1130BE858682880083C48808038404078803840DD
S1130BF82018801860186018483048808018A0A011
S1130C0878804868584880106C4480807E80808052
S1130C1880446C1080800804080480252E32660005
S9030000FC
