:100000000C94B5000C94D2000C9428020C94D200ED
:100010000C94D2000C94D2000C94D2000C94D20018
:100020000C94D2000C94D2000C94D2000C94D20008
:100030000C94D2000C94D2000C94D2000C94D200F8
:100040000C94D2000C94D2000C94D2000C94D200E8
:100050000C94D2000C945C020C94D2000C94D2004C
:100060000C94D2000C94D2006E616E00696E660032
:1000700000407A10F35A00A0724E18090010A5D45F
:10008000E80000E87648170000E40B54020000CABC
:100090009A3B000000E1F505000080969800000002
:1000A00040420F000000A086010000001027000061
:1000B0000000E803000000006400000000000A00E7
:1000C000000000000100000000002C76D888DC67EA
:1000D0004F0823DFC1DFAE59E1B1B796E5E3E45342
:1000E000C63AE651997696E8E6C28426EB898C9B5F
:1000F00062ED407C6FFCEFBC9C9F40F2BAA56FA5FF
:10010000F490055A2AF75C936B6CF9676DC11BFC80
:10011000E0E40D47FEF520E6B500D0ED902E03009B
:10012000943577050080841E080000204E0A0000E8
:1001300000C80C333333330F986E12831141EF8DA7
:100140002114893BE65516CFFEE6DB18D1844B38E7
:100150001BF77C1D901DA4BBE424203284725E2218
:100160008100C9F124ECA1E53D2711241FBECFEF8A
:10017000D8E0DEBFCDBF13E0A0E0B1E0E6E1F3E1FF
:1001800002C005900D92A830B107D9F723E0A8E08E
:10019000B3E001C01D92AD34B207E1F70E94C00286
:1001A0000C9489090C94000080E58CBD0895289872
:1001B0002A988EBD0DB407FEFDCF289A0895289881
:1001C0002A9A8EBD0DB407FEFDCF80910C0390914D
:1001D0000D030196843591052CF490930D038093C3
:1001E0000C0315C010920D0310920C0380910A03AA
:1001F00090910B030196863091052CF490930B039C
:1002000080930A0304C010920B0310920A03289AE9
:100210000895CF93DF93D82FC62F80680E94D70010
:100220008C2F80640E94D7008D2F90E090930D0357
:1002300080930C036C2F70E070930B0360930A03A0
:10024000DF91CF9108950F931F93CF93DF9360E0D9
:1002500080E00E94090106E010E0C4E5D0E080E003
:100260000E94DF002197D9F701501109B1F760E032
:1002700080E0DF91CF911F910F910C9409012FEF36
:1002800081EE94E0215080409040E1F700C00000F2
:10029000289829982FEF81EE94E0215080409040DB
:1002A000E1F700C00000299A289A81E20E94D70055
:1002B0008FEB0E94D70084E00E94D70083E10E9468
:1002C000D70080E20E94D7008CE00E94D7000C94F7
:1002D00023010F931F93CF93DF938A3089F46091AA
:1002E0000A0370910B036F5F7F4F70930B03609352
:1002F0000A0380E0DF91CF911F910F910C940901C7
:1003000040910C0350910D0324E530E0241B350B84
:10031000C82FD0E0253031053CF5CE01809745E06F
:10032000489FF001499FF00D1124E050FF4F40E03D
:1003300050E080E090E06191603809F001964F5FF5
:100340005F4F45305105B9F7281739076CF46091B4
:100350000A0370910B036F5F7F4F70930B036093E1
:100360000A0380E00E940901A09785E08C9F90011C
:100370008D9F300D1124E901C050DF4F00E010E0E7
:100380008991803811F00E94DF000F5F1F4F053008
:100390001105B1F780E0DF91CF911F910F910C947F
:1003A000DF000F931F93CF938C01C0E0F801EC0F97
:1003B000F11D8081882321F00E946901CF5FF6CF73
:1003C000CF911F910F9108951F93CF93DF93182F13
:1003D000D62FC42F0E94D90382E20E94E503812F09
:1003E0000E94E5038D2F0E94E5038C2F0E94E503F8
:1003F000DF91CF911F910C94E103CF93DF930E9483
:10040000D90382E20E94E50382E00E94E5030E9494
:10041000E1030E94D90383E20E94E503C0E0D0E03B
:100420000E94EF03FE01E35DFC4F80832196CC30F8
:10043000D105B1F70E94F90380933903DF91CF9181
:100440000C94E1038CE08093690082E08DBB0895F9
:100450001F920F920FB60F9211248F939F9390913A
:10046000090381E0911180E0809309039F918F91AE
:100470000F900FBE0F901F901895569A83E884BD79
:1004800085E085BD10926E0016BC80EF87BD089593
:10049000ECE7F0E09081907F908390818F70982BB3
:1004A0009083089581E680937C008CEA80937A00A3
:1004B00084E080937B0008951F920F920FB60F92F5
:1004C00011242F933F934F935F936F937F938F9359
:1004D0009F93AF93BF93EF93FF93E0910803F0E0F6
:1004E00080917900E95BFC4F80838091080390E064
:1004F000019663E070E00E9480078093080380917A
:1005000008030E9448028BB180588BB987E085BBF5
:10051000FF91EF91BF91AF919F918F917F916F91DB
:100520005F914F913F912F910F900FBE0F901F90B1
:1005300018958AB187608AB9089528E030E0599803
:1005400058989BB1482F4170942B9BB98695EFE941
:10055000FFE03197F1F700C00000599AEFE9FFE0A2
:100560003197F1F700C000002150310941F75A9A44
:100570008FE99FE00197F1F700C000005A980895B5
:10058000579A0E9452020E943D020E9422020E943B
:10059000990278948AEC0E949D028FEF84B90E94A0
:1005A000D4000E943F0161E080E00E9409010E94A6
:1005B000D00343E060EC82E00E94E4014DE060EC97
:1005C00082E00E94E40182E48F9389EC8F9383E3BD
:1005D0008F938F938BED92E09F938F938EE193E0B7
:1005E0009F938F930E9409098EE193E00E94D101AD
:1005F00040E162E283E00E94E4014FED64E885E0BF
:100600000E94E4010E94FD012DB73EB7285F3F4FD5
:100610000FB6F8943EBF0FBE2DBF8DEFE82E82E0DF
:10062000F82ECEE0D3E092E0C92E93E0D92E0FEF62
:1006300012E062E080E00E94090180EE92E00E94F8
:10064000D10162E080E00E940901809147031F927E
:100650008F93FF92EF92DF93CF930E9409098EE070
:1006600093E00E94D10162E08EE10E940901809135
:1006700048031F928F93DF92CF92DF93CF930E9414
:1006800009098EE093E00E94D10163E080E00E94BE
:100690000901809109031F928F931F930F93DF939A
:1006A000CF930E9409098EE093E00E94D10180EE71
:1006B00092E00E94D10164E080E00E9409018091F3
:1006C00049031F928F931F930F93DF93CF930E9441
:1006D00009098EE093E00E94D1018FE39CE9019724
:1006E000F1F700C0000090914903809149032DB7B4
:1006F0003EB7285E3F4F0FB6F8943EBF0FBE2DBFEA
:10070000992321F08A3110F481E047C09091490388
:10071000809149039A3120F0833310F483E03DC087
:100720009091490380914903933320F08C3410F465
:1007300087E033C090914903809149039C3420F0B5
:10074000853610F48FE029C09091490380914903C8
:10075000953620F08E3710F48FE11FC09091490339
:10076000809149039E3720F0873910F48FE315C03C
:100770009091490380914903973920F0803B10F410
:100780008FE70BC09091490380914903903B08F497
:1007900050CF893C08F04DCF8FEF0E949D0249CF8A
:1007A0001092B9008CE08093B80084E08093BC0084
:1007B000089584EA8093BC008091BC0087FFFCCF41
:1007C000089584E98093BC0008958093BB0084E879
:1007D0008093BC008091BC0087FFFCCF089584EC1F
:1007E0008093BC008091BC0087FFFCCF8091BB0050
:1007F000089584E88093BC008091BC0087FFFCCF03
:100800008091BB000895A0E1B0E0E9E0F4E00C9431
:1008100094077C011B016A01FC0117821682838107
:1008200081FF44C39E012F5F3F4F3901F701938140
:10083000F10193FD859193FF81911F01882309F4B4
:1008400031C3853239F493FD859193FF81911F0166
:10085000853239F4B70190E00E94CD085601650158
:10086000E5CF10E0512C912CFFE1F915D8F08B3237
:1008700079F038F4803279F08332A1F4F92DF06107
:100880002EC08D3261F0803369F4292D21602DC096
:10089000392D3260932E892D8460982E2AC0E92D3F
:1008A000E86015C097FC2DC020ED280F2A3088F491
:1008B00096FE06C03AE0139F200D1124122F19C096
:1008C0008AE0589E200D1124522EE92DE0629E2EC2
:1008D00010C08E3231F496FCE5C2F92DF0649F2EE3
:1008E00008C08C3621F4292D2068922E02C088364B
:1008F00041F4F10193FD859193FF81911F018111D5
:10090000B3CF9BEB980F933020F4992D9061805ECC
:1009100007C09BE9980F933008F066C1992D9F7E20
:1009200096FF16E09F73992E853619F49064992EE0
:1009300008C0863621F4392F3068932E02C0111179
:10094000115097FE07C01C3350F444244394410EC9
:1009500027E00BC0183038F027E017E005C027E08B
:100960009CE3492E02C0212F412C560184E0A80EA1
:10097000B11CF6016081718182819381042DA301F4
:100980000E94DF076C01F981FC87F0FF02C0F3FFD2
:1009900006C091FC06C092FE06C000E205C00DE252
:1009A00003C00BE201C000E08C858C7019F00111CE
:1009B0005AC29BC297FE10C04C0CFC85F4FF04C0C9
:1009C0008A81813309F44A94141474F528E02415BB
:1009D00078F588E0482E2CC096FC2AC0812F90E044
:1009E0008C159D059CF03CEFC3163FEFD30674F0C9
:1009F000892D8068982E0AC0E2E0F0E0EC0FFD1F20
:100A0000E10FF11D8081803319F411501111F4CFE1
:100A100097FE0EC044244394410E812F90E0C816E7
:100A2000D9062CF41C1904C04424439401C010E0DE
:100A300097FE06C01C141D0434F4C601019605C0BF
:100A400085E090E002C081E090E001110196112361
:100A500031F0212F30E02F5F3F4F820F931F252D64
:100A600030E08217930714F4581A01C0512C892DD5
:100A7000897049F4552039F0B70180E290E00E9476
:100A8000CD085A94F7CF002329F0B701802F90E0CA
:100A90000E94CD0893FC09C0552039F0B70180E3CE
:100AA00090E00E94CD085A94F7CF97FE4CC04601C3
:100AB000D7FE02C0812C912CC60188199909F30137
:100AC000E80FF91FFE87ED87960124193109388B4D
:100AD0002F87012F10E01195019511093FEF831623
:100AE000930629F4B7018EE290E00E94CD08C81465
:100AF000D9044CF08F8598898815990524F4ED85E3
:100B0000FE85818101C080E3F1E08F1A91082D8577
:100B10003E852F5F3F4F3E872D87801691062CF034
:100B2000B70190E00E94CD08D9CFC814D90441F490
:100B30009A81963320F4953319F43C8534FF81E390
:100B4000B70190E04EC08A81813319F09C859F7E69
:100B50009C87B70190E00E94CD08111105C094FC5C
:100B600018C085E690E017C0B7018EE290E00E94C1
:100B7000CD081E5F82E001E0080FF301E80FF11DD0
:100B80008081B70190E00E94CD08802F0113F3CF40
:100B9000E6CF85E490E0B7010E94CD08D7FC06C0FF
:100BA000C114D10441F4EC85E4FF05C0D194C19493
:100BB000D1088DE201C08BE2B70190E00E94CD0820
:100BC00080E32AE0C216D1042CF08F5FFAE0CF1A3E
:100BD000D108F7CFB70190E00E94CD08B701C60158
:100BE000C0960E94CD0854C1833631F0833779F026
:100BF000833509F056C020C0560132E0A30EB11C67
:100C0000F6018081898301E010E0630112C0560182
:100C1000F2E0AF0EB11CF601C080D18096FE03C099
:100C2000612F70E002C06FEF7FEFC6010E94C20823
:100C30008C01F92DFF7714C0560122E0A20EB11CE1
:100C4000F601C080D18096FE03C0612F70E002C023
:100C50006FEF7FEFC6010E94B7088C01F92DF06895
:100C60009F2EF3FD1AC0852D90E008171907A8F4F0
:100C7000B70180E290E00E94CD085A94F4CFF601CB
:100C800097FC859197FE81916F01B70190E00E94DA
:100C9000CD0851105A94015011090115110579F729
:100CA000F7C0843611F0893661F5560197FE09C008
:100CB00024E0A20EB11CF6016081718182819381D2
:100CC0000AC0F2E0AF0EB11CF60160817181072EFF
:100CD000000C880B990BF92DFF769F2E97FF09C00A
:100CE00090958095709561957F4F8F4F9F4FF068DD
:100CF0009F2E2AE030E0A3010E942B09C82EC618BF
:100D00003FC0092D853721F40F7E2AE030E01DC059
:100D1000097F8F3691F018F4883559F0C3C08037B9
:100D200019F0883711F0BEC0006104FF09C00460EB
:100D300007C094FE08C0066006C028E030E005C089
:100D400020E130E002C020E132E0560107FF09C097
:100D500084E0A80EB11CF6016081718182819381CB
:100D600008C0F2E0AF0EB11CF6016081718180E035
:100D700090E0A3010E942B09C82EC6180F77902E71
:100D800096FE0BC0092D0E7FC11650F494FE0AC0CA
:100D900092FC08C0092D0E7E05C0DC2C092D03C075
:100DA000DC2C01C0D12E04FF0DC0FE01EC0DF11DA5
:100DB0008081803311F4097E09C002FF06C0D394FC
:100DC000D39404C0802F867809F0D39403FD11C01A
:100DD00000FF06C01C2DD51480F4150D1D190DC083
:100DE000D51458F4B70180E290E00E94CD08D39466
:100DF000F7CFD51410F45D1801C0512C04FF10C0BA
:100E0000B70180E390E00E94CD0802FF17C001FD0A
:100E100003C088E790E002C088E590E0B7010CC00D
:100E2000802F867859F001FF02C08BE201C080E27A
:100E300007FD8DE2B70190E00E94CD08C11638F49D
:100E4000B70180E390E00E94CD081150F7CFCA941B
:100E5000F301EC0DF11D8081B70190E00E94CD08F7
:100E6000C110F5CF15C0F4E0F51560F584E0581A0F
:100E700093FE1FC0011127C02C8523FF2AC008E65E
:100E800010E0392D3071932EF8018491811124C026
:100E9000552009F4E4CCB70180E290E00E94CD082F
:100EA0005A94F6CFF7018681978126C08FEF9FEF86
:100EB00023C0B70180E290E00E94CD085A945110FF
:100EC000F8CFD8CF512CB701802F90E00E94CD08E9
:100ED000D3CF0CE610E0D5CF91108052B70190E04F
:100EE0000E94CD080F5F1F4FCFCF23E0251510F4D0
:100EF00083E0BDCF512CC0CF6096E2E10C94B007E7
:100F000097FB072E16F4009407D077FD09D00E94B6
:100F1000CB0707FC05D03EF4909581959F4F08952F
:100F2000709561957F4F08952F923F924F925F92F7
:100F30006F927F928F929F92AF92BF92CF92DF92E9
:100F4000EF92FF920F931F93CF93DF93CDB7DEB74E
:100F5000CA1BDB0B0FB6F894DEBF0FBECDBF0994E2
:100F60002A88398848885F846E847D848C849B8439
:100F7000AA84B984C884DF80EE80FD800C811B8147
:100F8000AA81B981CE0FD11D0FB6F894DEBF0FBE76
:100F9000CDBFED010895AA1BBB1B51E107C0AA1FDD
:100FA000BB1FA617B70710F0A61BB70B881F991F0A
:100FB0005A95A9F780959095BC01CD0108952830E8
:100FC00008F027E03327DA01990F311D87FD916082
:100FD00000966105710539F432602E5F3D9330E370
:100FE0002A95E1F708959F3F30F08038710561053B
:100FF00009F03C5F3C5F3D93913008F08068911DA3
:10100000DF93CF931F930F93FF92EF92192F987F47
:101010009695E92F96959695E90FFF27E653FF4F92
:1010200099273327EE24FF24A701E70105900894B0
:10103000079428F4360FE71EF81E491F511D660F4E
:10104000771F881F991F0694A1F70590079428F42D
:10105000E70EF81E491F561FC11D770F881F991FE5
:10106000661F0694A1F70590079428F4F80E491F0F
:10107000561FC71FD11D880F991F661F771F069423
:10108000A1F70590079420F4490F561FC71FD81FDA
:10109000990F661F771F881F0694A9F784911095F2
:1010A000177041F0D695C79557954795F794E794F3
:1010B0001A95C1F7E0E7F0E0689415901591359125
:1010C0006591959105907FE27395E118F10A430BC4
:1010D000560BC90BD009C0F7E10CF11E431F561F78
:1010E000C91FD01D7EF4703311F48A95E6CFE894C1
:1010F000015030F0080F0AF40027021708F4202FDF
:101100002395022F7A3328F079E37D932A95E9F726
:1011100010C07D932A9589F6069497956795379523
:1011200017951794E118F10A430B560BC90BD00918
:1011300098F023957E9173957A3308F070E37C9351
:101140002013B8F77E9170617D9330F0839571E341
:101150007D9370E32A95E1F71124EF90FF900F91B2
:101160001F91CF91DF91992787FD90950895FC01FC
:101170000590615070400110D8F7809590958E0FC2
:101180009F1F0895FC016150704001900110D8F735
:10119000809590958E0F9F1F08950F931F93CF9367
:1011A000DF93FB01238121FD03C08FEF9FEF2CC054
:1011B00022FF16C04681578124813581421753078B
:1011C00044F4A081B1819D012F5F3F4F3183208383
:1011D0008C93268137812F5F3F4F3783268314C03E
:1011E0008B01EC01FB010084F185E02D0995892B31
:1011F000E1F6D80116968D919C9117970196179656
:101200009C938E931697CE01DF91CF911F910F91F2
:101210000895AEE0B0E0EFE0F9E00C94A2070D898C
:101220001E8986E08C831A8309838FEF9FE79E8354
:101230008D83AE01475E5F4F6F89788DCE01019639
:101240000E940304EF81F885E00FF11F10822E96B3
:10125000E4E00C94BE07FA01AA27283051F12031AE
:1012600081F1E8946F936E7F6E5F7F4F8F4F9F4F3A
:10127000AF4FB1E03ED0B4E03CD0670F781F891F7C
:101280009A1FA11D680F791F8A1F911DA11D6A0F4A
:10129000711D811D911DA11D20D009F468943F91FD
:1012A0002AE0269F11243019305D3193DEF6CF01FC
:1012B0000895462F4770405D4193B3E00FD0C9F7C2
:1012C000F6CF462F4F70405D4A3318F0495D31FD2F
:1012D0004052419302D0A9F7EACFB4E0A695979582
:1012E000879577956795BA95C9F700976105710558
:1012F00008959B01AC010A2E0694579547953795A2
:101300002795BA95C9F7620F731F841F951FA01DFB
:061310000895F894FFCFE0
:1013160000000080805C808080800C000C8080282B
:101326007C287C285058EC28800460100C402854F7
:101336005420500C808080803844808080443880DF
:10134600808014081480801038108080C04080800F
:10135600801010108080408080808040201008041B
:101366003844443880047C808080645454488044E7
:101376005454288030287C20805C5454248038546F
:101386005420800464140C80285454288008545433
:101396003880288080808068808080801028448003
:1013A60080282828808044281080800454140880CF
:1013B600384474543878242478807C5454288038EF
:1013C600444480807C444438807C545444807C145B
:1013D60014048038445474807C10107C80447C440F
:1013E60080802040443C807C102844807C404080A3
:1013F600807C0810087C7C08107C80384444388047
:101406007C24241880384444B8807C24245880489E
:1014160054542480047C0480803C40403C803C4002
:10142600300C803C4038403C6C10106C800C5050A6
:101436003C8064544C80807C44808080040810206A
:1014460040447C8080800804088080404040408082
:10145600040880808030484878807C484830803056
:10146600484880803048487C803068581080107822
:1014760014808018A4A47C807C0808708074808006
:10148600808040348080807C203044807C808080D6
:10149600807808780870780808708030484830806E
:1014A600F848483080304848F880781008808050E6
:1014B60058682880083C488080384040788038400A
:1014C6002018801860186018483048808018A0A03E
:1014D60078804868584880106C4480807E80808080
:1014E60080446C1080800804080480252E32660033
:1014F60020202020202020202020202020202020E6
:1015060020202020202020202020202000302025E0
:0815160064003120256400008F
:00000001FF
